:020000040800F2
:10000000B006002045010008111800081318000868
:100010001F18000823180008271800080000000017
:100020000000000000000000000000002B18000885
:100030002D180008000000002F18000831180008D3
:100040005F0100085F0100085F0100085F01000810
:100050005F0100085F0100085F0100085F01000800
:100060005F0100085F0100085F0100085F010008F0
:100070005F0100085F0100085F0100085F010008E0
:100080005F0100085F0100085F0100085F010008D0
:100090005F0100085F0100085F0100085F010008C0
:1000A0005F0100085F0100085F0100085F010008B0
:1000B0005F0100085F0100085F0100085F010008A0
:1000C0005F0100085F0100085F0100085F01000890
:1000D0005F010008171800085F0100085F010008B1
:1000E0005F0100085F0100085F0100085F01000870
:1000F0005F0100085F0100085F0100085F01000860
:100100005F0100085F0100085F0100085F0100084F
:100110005F0100085F0100085F0100085F0100083F
:100120005F0100085F0100085F0100085F0100082F
:10013000DFF80CD005F07AFA004800479113000868
:10014000B00600200648804706480047FEE7FEE765
:10015000FEE7FEE7FEE7FEE7FEE7FEE7FEE7FEE777
:1001600045020008310100080CB500200190009004
:100170006B48006840F480306949086000BF6848F7
:10018000006800F4003000900198401C0190009835
:1001900018B90198B0F5A06FF1D16148006810F46A
:1001A000003F02D00120009001E000200090009864
:1001B000012842D15B48006840F0100059490860AE
:1001C0000846006820F0030008600846006840F018
:1001D000020008605248406851494860084640683B
:1001E00048600846406840F48060486008464068BF
:1001F00020F47C1048600846406840F4E8104860ED
:100200000846006840F08070086000BF44480068FD
:1002100010F0007FFAD04248406820F003004049C7
:1002200048600846406840F00200486000BF3C4813
:10023000406800F00C000828F9D10CBD10B5FFF79C
:1002400093FF10BD10B53648006840F001003449F6
:10025000086008464068344908403149486008460B
:100260000068324908402E4908600846006820F4BA
:10027000802008600846406820F4FE0048604FF483
:100280001F008860FFF7DAFF4FF000602849086020
:1002900010BD10B5002100200022214B5B6803F047
:1002A0000C0121B1042906D0082928D107E0214BEF
:1002B000214C236027E01F4B1F4C236023E0184B89
:1002C0005B6803F47010164B5B6803F48032022302
:1002D00003EB904022B9194B4343174C23600DE0C8
:1002E0000F4B5B6813F4003F04D0144B4343124C94
:1002F000236003E00F4B43430F4C236003E00D4B9F
:100300000D4C236000BF00BF054B5B68C3F30313B4
:100310000B4CE15C084B1B68CB40074C236010BDC5
:1003200000100240002002400000FFF8FFFFF6FE30
:1003300008ED00E000127A000000002000093D00F6
:100340000400002031490143314A1160704770B503
:10035000002100230F22C4780CB32D4C246804F430
:10036000E064C4F5E064210AC1F10403CA404478A2
:1003700004FA03F18478144021430901254C0678DE
:10038000A155047804F01F050124AC4005786D11D7
:100390004FF0E02606EB8505C5F8004109E004783A
:1003A00004F01F050124AC401B4D0678761145F87A
:1003B000264070BD194A0A400243154B1B1F1A60A4
:1003C000704739B1124A121D12680243104B1B1DAF
:1003D0001A6006E00E4A121D126882430C4B1B1D68
:1003E0001A607047042808D14FF0E021096941F0F4
:1003F00004014FF0E022116107E04FF0E0210969AC
:1004000021F004014FF0E022116170470000FA056D
:100410000CED00E000E400E080E100E080FFFF1F61
:1004200010B50446CA48844208D10121042000F0D6
:1004300027FB0021042000F023FB46E0C54884424E
:1004400008D10121082000F01BFB0021082000F04A
:1004500017FB3AE0C048844208D10121102000F087
:100460000FFB0021102000F00BFB2EE0BB48844264
:1004700008D10121202000F003FB0021202000F002
:10048000FFFA22E0B648844208D10121402000F062
:10049000F7FA0021402000F0F3FA16E0B148844258
:1004A00008D10121802000F0EBFA0021802000F02B
:1004B000E7FA0AE0AC48844207D10121801500F038
:1004C000DFFA0021A01500F0DBFA10BD10B5012104
:1004D000084600F0D5FA0021012000F0D1FA10BD45
:1004E0002DE9F041024600250026002000230024CB
:1004F000002791F803C00CF00F0591F803C01CF021
:10050000100F03D091F802C04CEA050591F800C025
:10051000BCF1000F31D0146800202BE04FF0010C2B
:100520000CFA00F3B1F800C00CEA03069E4220D199
:1005300083004FF00F0C0CFA03F7BC4305FA03FCE1
:100540004CEA040491F803C0BCF1280F06D14FF027
:10055000010C0CFA00FCC2F814C00AE091F803C0C8
:10056000BCF1480F05D14FF0010C0CFA00FCC2F8A9
:1005700010C0401C0828D1D31460B1F800C0BCF1F1
:10058000FF0F34DD546800202EE000F1080C4FF01E
:10059000010808FA0CF3B1F800C00CEA03069E4209
:1005A00021D183004FF00F0C0CFA03F7BC4305FA7E
:1005B00003FC4CEA040491F803C0BCF1280F05D1F8
:1005C00000F1080C08FA0CF8C2F8148091F803C086
:1005D000BCF1480F07D100F1080C4FF0010808FAF0
:1005E0000CF8C2F81080401C0828CED35460BDE837
:1005F000F0814FF6FF710180022181700421C170EA
:1006000070470246002093680B4201D0012000E0B1
:10061000002070470146886880B27047024600207B
:10062000D3680B4201D0012000E000207047014652
:10063000C86880B2704701617047416170470AB174
:10064000016100E041617047C16070474FF4803242
:100650000A438261816182618269826970470246D0
:100660000020424B18684FF68073184040EA021091
:1006700008433E4B186070473D49C8617047F0B56C
:100680000A46002300240021002500F00046B6F1B0
:10069000004F02D1354EF16901E0344E7168C0F36C
:1006A000034583B200F44016B6F5401F08D121F08F
:1006B00070612E4E766826F070662C4F7E6012E0D8
:1006C00000F48016B6F5801F06D1032606FA05F45D
:1006D000A14341F0706106E0460D360103FA06F6CB
:1006E000B14341F0706122B1460D360103FA06F6BE
:1006F000314300F00046B6F1004F02D11B4EF161CC
:1007000001E01A4E7160F0BD30B500228B071C0F5E
:100710000F2303FA04F2154B08338C1053F82430DE
:100720009343124C08348D1044F8253023468C1026
:1007300053F824308C07240F00FA04F423430B4CA5
:1007400008348D1044F8253030BD0A4908607047E0
:1007500000080140000C014000100140001401405D
:1007600000180140001C0140002001400000014031
:1007700000002042DC002042DD48006840F001001B
:10078000DB49086008464068DA490840D8494860B3
:1007900008460068D8490840D549086008460068FE
:1007A00020F4802008600846406820F4FE0048607D
:1007B0004FF41F0088607047CD49096821F48031EB
:1007C000CB4A11601146096821F480211160B0F50F
:1007D000803F03D0B0F5802F0ED106E0C4490968F0
:1007E00041F48031C24A116007E0C149096841F40F
:1007F000A021BF4A116000E000BF00BF704710B5E4
:1008000001460022002300204A11012A02D1B84CDF
:10081000236806E0022A02D1B54C236A01E0B44CF9
:10082000636A01F01F02012494401C4201D00120A0
:1008300000E0002010BD38B5002000900024002505
:1008400000BF3120FFF7DBFF05460098401C0090F9
:100850000098B0F5A06F01D0002DF2D03120FFF745
:10086000CEFF08B1012400E00024204638BD014637
:1008700000209F4A106820F0F80040EAC100106094
:1008800070479E490860704702460020984B5868A0
:1008900020F47C1042EA01031843954B58607047DE
:1008A00096490866704701460020914A506820F03A
:1008B00003000843506070478D48406800F00C000A
:1008C0007047014600208A4A506820F0F000084333
:1008D0005060704701460020854A506820F4E0606F
:1008E00008435060704701460020814A506820F458
:1008F000605040EAC1005060704729B17C4A527A8A
:1009000002437B4B5A7204E0794A527A8243784B15
:100910005A7270477A490860704701460020744A4D
:10092000506820F440400843506070470021754AE9
:1009300011706F4A82F82010012802D0042808D1D3
:1009400003E001216F4A117004E005216D4A117026
:1009500000E000BF00BF70476B4908607047644902
:10096000096A0143624A1162704767494439086065
:10097000704730B500210022002400235C4D6D68D3
:1009800005F00C0121B1042905D0082923D105E087
:100990005E4D056022E05D4D05601FE0544D6D68C1
:1009A00005F47012524D6D6805F48034022505EB94
:1009B00092421CB9564D554305600BE04C4D6D6895
:1009C00015F4003F03D0524D5543056002E04F4DF2
:1009D0005543056002E04D4D056000BF00BF444D2A
:1009E0006D6805F0F00109094A4D6B5C0568DD4052
:1009F00045603F4D6D6805F4E061090A454D6B5C4B
:100A00004568DD4085603A4D6D6805F46051C90A5E
:100A1000404D6B5C4568DD40C560354D6D6805F443
:100A20004041890B3C4D6B5CC568B5FBF3F5056136
:100A300030BD29B12E4A526902432D4B5A6104E060
:100A40002B4A526982432A4B5A61704729B1284A7E
:100A500092690243264B9A6104E0254A92698243D7
:100A6000234B9A61704729B1214AD2690243204B36
:100A7000DA6104E01E4AD26982431D4BDA61704795
:100A800029B11B4AD2680243194BDA6004E0184AC4
:100A9000D2688243164BDA60704729B1144A126952
:100AA0000243134B1A6104E0114A12698243104B4E
:100AB0001A61704714494039086070470F49C8648B
:100AC00070470B49C87170470948406A40F0807010
:100AD00007494862704701460020054A92680A4269
:100AE00001D0012000E00020704701498872704762
:100AF000001002400000FFF8FFFFF6FE0000424237
:100B0000D8004242201002408004424200127A0083
:100B100000093D00140000202400002010B5044608
:100B2000BE48844208D101218014FFF7A9FF0021AB
:100B3000A014FFF7A5FF16E0B948844208D10121AF
:100B40000014FFF7AAFF00212014FFF7A6FF0AE018
:100B5000B448844207D10121C013FFF79EFF002152
:100B6000E013FFF79AFF10BD10B50022028802F4CF
:100B700041520B884C8823438C882343CC882343E1
:100B80000C8923434C8923438C892343CC892343F9
:100B90001A430280838B4FF2FF74234083830B8AB6
:100BA000038210BD2DE9F04F85B005460C464FF08D
:100BB000000902274FF000084FF0010B0026B24653
:100BC000A88B4FF240010840A88302202884B5F882
:100BD0001C90A068022801D100BF38E0A08810B99D
:100BE0004FF0010B01E04FF0020B8D48854200D120
:100BF00000E000BF6846FFF7BCFEDDF800A0E0881B
:100C0000B0F5007F0AD14FEA1A2000EB80004000C7
:100C1000A168B0FBF1F0401D86B20BE04FEA4B102B
:100C2000BAFBF0F000EB80004000A168B0FBF1F0EF
:100C3000401D86B20A20B6FBF0F606F00108A6EBCE
:100C40000800C0F34F074FF6FF7000EA0828022F94
:100C500001DBFF2F02DD02274FF00008E08840EAA9
:100C6000080038432884A088A18908436188084384
:100C70002188084340F4006040EA0909A5F81C9067
:100C800005B0BDE8F08F0021018041808180C180E6
:100C9000018141818181C181072101827047002149
:100CA000018041808180C180022181600021818199
:100CB000704721B1028842F04002028004E00288BD
:100CC0004FF6BF731A400280704721B1828B42F405
:100CD0008062828304E0828B4FF6FF331A40828366
:100CE000704730B5002400230C110125A540ABB29C
:100CF0001AB185881D43858002E085889D438580E3
:100D000030BD1AB183880B43838002E083888B4314
:100D10008380704781817047014688897047A1F5BB
:100D20007E42FF3A04D0028842F48072028004E0DE
:100D300002884FF6FF631A400280704721B1828813
:100D400042F00402828004E082884FF6FB731A406E
:100D50008280704702884FF2FF731A400280028837
:100D60000A4302807047018841F480510180704736
:100D700021B1028842F40052028004E002884DF65C
:100D8000FF731A400280704702460020012901D0FB
:100D9000108B00E0908A70470146088A7047B1F5D1
:100DA000804F04D1028842F48042028004E002882D
:100DB0004BF6FF731A4002807047024600201389E9
:100DC0000B4201D0012000E000207047CA4302819D
:100DD0007047F0B50246002000240023002501F0F2
:100DE0000F070126BE40B4B20B1101269E40B3B2DC
:100DF000968806EA03051689264202D00DB1012025
:100E000000E00020F0BD10B5002201F00F04012326
:100E1000A3409AB2D343038110BD000000300140CB
:100E200000380040003C004010B50446FB488442B6
:100E300009D101218803FFF723FE00214FF48040F0
:100E4000FFF71EFE32E0F648844209D10121480432
:100E5000FFF723FE00214FF40030FFF71EFE25E0D0
:100E6000F048844209D101218804FFF716FE0021D1
:100E70004FF48020FFF711FE18E0EB48844209D1BF
:100E80000121C804FFF709FE00214FF40020FFF7FD
:100E900004FE0BE0E548844208D101210805FFF774
:100EA000FCFD00214FF48010FFF7F7FD10BD2DE988
:100EB000F04786B005460E460024A24600BFA14674
:100EC0000027B08900B100BF2F462C8A4CF6FF7076
:100ED0000440F08804432C82AC894EF6F3100440A1
:100EE000B08831890843718908430443AC81AC8AD6
:100EF0004FF6FF400440B0890443AC8201A8FFF7DD
:100F000038FDC648874202D1DDF810A001E0DDF8C7
:100F10000CA0A88910F4004F08D00AEBCA0000EB1F
:100F20000A1031684900B0FBF1F807E00AEBCA008B
:100F300000EB0A1031688900B0FBF1F86420B8FBBF
:100F4000F0F004012009642101FB1089A88910F444
:100F5000004F08D0322000EBC900B0FBF1F000F0E8
:100F60000700044308E0322000EB09106421B0FBC5
:100F7000F1F000F00F0004432C8106B0BDE8F087CB
:100F80004FF41651016000218180C18001810C2144
:100F9000418100218181704710B502460020108AEE
:100FA0004FF2FF0318400B884C8823438C8823435F
:100FB000CC8823431843108210BD0021018041805A
:100FC0008180C180704721B1828942F400528281C0
:100FD00004E082894DF6FF731A4082817047F0B5B4
:100FE00003460024002600250020A1F510676A3F73
:100FF00000D100BF1846C1F3421401F01F060127BB
:1010000007FA06F5012C01D10C3004E0022C01D1C5
:10101000103000E014301AB107682F43076002E077
:101020000768AF430760F0BD1AB1838A0B43838220
:1010300002E0838A8B4383827047028A4FF6F07303
:101040001A400282028A0A430282704782894FF262
:10105000FF731A40828182890A438281704721B1DD
:10106000828942F00202828104E082894FF6FD7398
:101070001A4082817047028A4FF6DF731A4002825B
:10108000028A0A430282704721B1028A42F48042F6
:10109000028204E0028A4BF6FF731A400282704714
:1010A000C1F308028280704701468888C0F30800B7
:1010B0007047818941F0010181817047028BD2B272
:1010C0000283028B42EA012202837047028B02F400
:1010D0007F420283028B0A430283704721B1828AD6
:1010E00042F02002828204E0828A4FF6DF731A40C7
:1010F0008282704721B1828A42F01002828204E02B
:10110000828A4FF6EF731A408282704721B1828A39
:1011100042F00802828204E0828A4FF6F7731A4096
:101120008282704721B1828942F40042828103E0C9
:101130008289C2F30E028281704721B1828A42F411
:101140000062828204E0828A4FF2FF731A40828238
:101150007047828A4FF6FB731A408282828A0A4362
:101160008282704721B1828A42F00202828204E0C8
:10117000828A4FF6FD731A40828270470246002031
:10118000B1F5007F00D100BF13880B4201D00120D0
:1011900000E00020704701F40072B2F5007F00D13A
:1011A00000BFCA430280704770B502460024002386
:1011B00000250020A1F510666A3E00D100BFC1F3F2
:1011C000421501F01F03012606FA03F3012D02D197
:1011D0009689334006E0022D02D1168A334001E0A1
:1011E000968A33400C12012606FA04F4168834401D
:1011F00013B10CB1012000E0002070BD10B5002239
:101200000023A1F510646A3C00D100BF0A1201243A
:101210009440A3B2DC43048010BD000000380140BC
:101220000044004000480040004C00400050004096
:1012300010B50446142C0FD10121FD48FFF7FDF92C
:101240001421252000F03EFC0121F948FFF7F3F9B5
:10125000642000F085FD22E0282C0FD10121F44804
:10126000FFF7EBF92821252000F02CFC0121F048A4
:10127000FFF7E1F9642000F073FD10E03C2C0ED183
:101280000121EB48FFF7D9F93C21252000F01AFC99
:101290000121E748FFF7CFF9642000F061FD10BDA0
:1012A000F0B50C4600220023002100BF58E00F29B2
:1012B00000DD0021455C2B2D26D12E2502EB4206B8
:1012C00004F8165001231CE00D464E1CF1B2455D9A
:1012D00002EB420604EB4606F554455C2B2D04D088
:1012E000455C2D2D01D0455C4DB9002602EB420531
:1012F00004EB45075D1CEDB22B467E5503E05D1CFB
:10130000EBB2062BE0DB29E0455C2D2D26D12E2506
:1013100002EB420604F8165001231CE00D464E1C59
:10132000F1B2455D02EB420604EB4606F554455C1E
:101330002B2D04D0455C2D2D01D0455C4DB90026E8
:1013400002EB420504EB45075D1CEDB22B467E55D2
:1013500003E05D1CEBB2062BE0DB00BF551CEAB2DC
:10136000032AA4DBF0BD08B54FF4C060FEF7EAFF26
:1013700025208DF8000001208DF8010003208DF854
:10138000020001208DF803006846FEF7E0FF08BD6B
:101390009EB000F027FEFFF7E6FF00F020FB00F014
:1013A00049FA00F055FCA349087008460078012866
:1013B00003D1A1A004F0AEF902E0A7A004F0AAF9BD
:1013C00084E03C22AF490AA803F009FD1422AD498C
:1013D0003C3105A803F003FD1422AA4950316846A8
:1013E00003F0FDFC00F0E1FB1420FFF721FFA6480D
:1013F00000F07EFC19A9A448FFF752FF19A90AA81A
:1014000003F011FD0DF16A0105A803F00CFD1CA904
:10141000684603F008FD0A2000F0A2FC2820FFF730
:1014200007FF994800F064FC19A99748FFF738FFB7
:1014300019A90AA803F0F7FC0DF16A0105A803F049
:10144000F2FC1CA9684603F0EEFC0A2000F088FCC0
:101450003C20FFF7EDFE8C4800F04AFC19A98A48B1
:10146000FFF71EFF19A90AA803F0DDFC0DF16A01C0
:1014700005A803F0D8FC1CA9684603F0D4FC83A19E
:101480000AA803F0D0FC81A105A803F0CCFC80A140
:10149000684603F0C8FC0A2000F062FC05A90AA80F
:1014A00003F0C1FC69460AA803F0BDFC0AA800F0DD
:1014B0004DFA3C210AA803F0ABFC142105A803F067
:1014C000A7FC1421684603F0A3FC00BF79E770B5C0
:1014D00004460D460021284603F01AFF0BD82B20A6
:1014E0002070284603F0ADFE0646324669A1601C16
:1014F00004F020F908E0284603F0A3FE0646324631
:1015000064A1204604F016F970BD2DE9F04F95B0A6
:101510000EA80FA914AB0AAACDE9001010A912A8B1
:1015200003F024FBBDF83C0010F4807F7ED00A98C5
:1015300003F079FE04464FF09D4103F01BFD564930
:1015400008600B9803F06FFE04464FF09D4103F0D6
:1015500011FD524908600C9803F065FE04464FF0F7
:101560009D4103F007FD4E4908600D9803F05BFEB6
:1015700004464FF09D4103F0FDFC4A49086046488F
:1015800001684FF0804003F0BFFC069044480168BA
:10159000069803F0B9FC0890404801684FF04040BD
:1015A00003F0B2FC06903F480168069803F0ACFCDB
:1015B0000790089903F050FC099003F06FFE8246F3
:1015C00004F0FEFA80464FF06632374B03F0B9FD67
:1015D0000646364A364B03F0AEFD044603F071FE74
:1015E000344908602E4801684FF0804003F08CFCBD
:1015F00003902B480168039803F086FC8246274835
:1016000001684FF0404003F07FFC039023480168DD
:10161000039803F079FC8346514603F06FFC814642
:101620004FF07E5103F018FC044645E0D6E0000080
:10163000000C01403C0000200D0A2020202020202A
:101640004E5246D3EB4D4355C1ACBDD3B3C9B9A639
:10165000A3A10D0A000000000D0A20204E5246D31F
:10166000EB4D4355C1ACBDD3CAA7B0DCA3ACC7EBAF
:10167000D6D8D0C2BCECB2E9BDD3CFDFA1A30D0A4E
:10168000000000002C620008A00000202C000000D8
:101690007D000000253264002C0000203000002076
:1016A000340000203800002066A64C408FC2F52888
:1016B0005C8FEA3F4800002003F0F0FDCDE9060111
:1016C000484801684FF0804003F01EFC83464648BE
:1016D0000168584603F018FC8146444801684FF001
:1016E000804003F011FC834641480168584603F0EE
:1016F0000BFC8246494603F0AFFB044603F0CEFDE7
:10170000CDE90401DDE9062304F0AAFC4FF06632BE
:10171000384BCDE9080103F014FD0746364A374B34
:1017200003F068FC054603F0CCFD354908603048FD
:101730000168006803F0E8FB06902C480168006827
:1017400003F0E2FB049028480168006803F0DCFB2A
:10175000029024480168006803F0D6FB01900299CA
:1017600003F07AFB0390049903F0C8FB05900699F7
:1017700003F0C4FB079003F091FD82468B461C48A2
:1017800001681848006803F0BFFB0590174801681E
:101790001548006803F0B8FB0490059903F05CFB62
:1017A0004FF08041069003F0AFFB079003F076FD09
:1017B000064652465B4604F053FC4FF066320D4B32
:1017C000CDE9080103F0BDFC04460E4A0E4B03F0C0
:1017D000B2FC804603F075FD0C49086015B0BDE809
:1017E000F08F00002C00002030000020340000208A
:1017F0003800002066A64C40E17A14AE47E1EA3F8B
:1018000044000020D7A3703D0AD7244040000020A8
:10181000704700BFFEE710B500F068F810BD00BFCC
:10182000FEE700BFFEE700BFFEE770477047704766
:101830007047000000B585B0012144F20400FFF7B5
:1018400005F94FF40070ADF8100018208DF8130062
:1018500003208DF8120004A95748FEF741FE4FF40B
:101860008060ADF8100004208DF8130004A95248E0
:10187000FEF736FE4FF4165000900020ADF804003D
:10188000ADF80600ADF80800ADF80C000C20ADF87E
:101890000A0069464948FFF70AFB012240F2255138
:1018A0004648FFF79CFB01214448FFF78CFB05B03D
:1018B00000BD70B504460D46E1B24048FFF7F0FBAD
:1018C00000BF80213D48FFF759FC0028F9D0204691
:1018D00070BD10B5044600BF20213848FFF74EFC0C
:1018E0000028F9D03548FFF7DFFB10BD10B540F2F6
:1018F00027713248FFF758FCB0B1314802780078C0
:10190000401C2F4B18702F48815C2C48FFF7C8FBF8
:101910002B4800782C490978884205D1002240F2F2
:1019200027712648FFF75BFB10BD10B5044626481B
:1019300001780078401C244A107022484454012247
:1019400040F227711D48FFF74AFB10BD10B5044651
:101950000FE020780D2802D1FFF7E7FF08E020789C
:101960000A2802D1FFF7E1FF02E02078FFF7DDFF50
:10197000641C20780028ECD110BD70B505460E46D9
:1019800000240AE0295D104802780078401C0E4BC4
:1019900018700C488154601CC4B2B442F2DB074892
:1019A0000C30008810F0800F05D1012240F2277121
:1019B0000248FFF714FB70BD0008014000380140E9
:1019C0004C000020A00100204D00002001B502E0E5
:1019D0000098401E009000980028F9D108BD00B57D
:1019E00087B001210C20FFF731F801210803FFF730
:1019F0002DF8E020ADF8040001208DF80600182035
:101A00008DF8070001A9CF48FEF76AFD0320ADF865
:101A1000040001208DF8060010208DF8070001A9B0
:101A2000C948FEF75DFD1020ADF8040001208DF8D7
:101A3000060048208DF8070001A9C248FEF750FDB6
:101A40000221C148FEF7F7FD0020ADF808004FF471
:101A50008270ADF80A000020ADF80C00ADF80E0061
:101A6000ADF810004FF40070ADF812001020ADF882
:101A700014000020ADF816000720ADF8180002A9E8
:101A8000B248FFF771F80121B048FFF712F907B02B
:101A900000BD10B5044600BF0221AC48FFF78DF928
:101AA0000028F9D02146A948FFF734F900BF0121E9
:101AB000A648FFF782F90028F9D0A448FFF72CF9CF
:101AC000C0B210BD70B505460C4601219E48FEF718
:101AD000B4FD02219C48FEF7B0FD2846FFF7D9FF70
:101AE00006462046FFF7D5FF02219748FEF7A3FDE3
:101AF000304670BD70B5044601219348FEF79DFD48
:101B000002219148FEF799FD2046FFF7C2FFFF2012
:101B1000FFF7BFFF054602218B48FEF78CFD2846E4
:101B200070BD2DE9F04107460D4616460121864855
:101B3000FEF783FD02218448FEF77FFD3846FFF75C
:101B4000A8FF8046002405E0FF20FFF7A2FF2855EC
:101B5000601CC4B2B442F7DB02217B48FEF76BFD88
:101B60004046BDE8F0812DE9F04107460C46154698
:101B700001217548FEF761FD02217348FEF75DFD06
:101B80003846FFF786FF8046002605E014F8010B73
:101B9000FFF77FFF701CC6B2AE42F7DB02216A4836
:101BA000FEF749FD4046BDE8F08110B501216648C9
:101BB000FEF743FD0F2266492A20FFF7D4FF0121DB
:101BC0002120FFF77FFF01212220FFF77BFF0F215C
:101BD0003120FFF777FF0F212620FFF773FF0F213A
:101BE0002020FFF76FFF01215748FEF724FD10BDAD
:101BF00010B501215448FEF720FD0F225549302031
:101C0000FFF7B1FF0F2252492A20FFF7ACFF012155
:101C10002120FFF757FF01212220FFF753FF1A2150
:101C20002420FFF74FFF14212520FFF74BFF0F2142
:101C30002620FFF747FF0E212020FFF743FF012159
:101C40004148FEF7F8FC4FF6FF70FFF7BFFE10BDEE
:101C50001FB541A103C9CDE90201052202A9302027
:101C6000FFF781FF052269461020FFF75AFF002485
:101C700006E01DF80400C22800D003E0601CC4B2D6
:101C8000052CF6DB00BF052C02D1012004B010BDED
:101C90000020FBE770B5054601212B48FEF7CDFC7F
:101CA0000F222946A020FFF75EFF01212648FEF7FC
:101CB000C2FC00BF10212348FEF7A3FC0028F9D185
:101CC0000720FFF717FF044621462720FFF7FAFEFB
:101CD000FF21E120FFF7F6FE14F0100F01D01020D5
:101CE00070BD14F0200F01D02020F9E70020F7E7A5
:101CF00070B5054601211448FEF79DFC00BF102178
:101D00001048FEF77EFC0028F9D101210E48FEF7AD
:101D100094FC0720FFF7EEFE044621462720FFF73C
:101D2000D1FE14F0400F0AD00F2229466120FFF7A0
:101D3000F8FEFF21E220FFF7C5FE402070BD002025
:101D4000FCE7000000080140000C014000300140A9
:101D50005D0000204E000020C2C2C2C2C2000000CE
:101D6000014642F228324A434FF0E0235A610022F2
:101D70009A6101221A6100BF4FF0E022106910F051
:101D8000010F02D010F4803FF6D000224FF0E02384
:101D90001A619A617047014601EBC1024FF0E023DE
:101DA0005A6100229A6101221A6100BF4FF0E022BD
:101DB000106910F0010F02D010F4803FF6D000221D
:101DC0004FF0E0231A619A617047704708B5072009
:101DD000009002E00098401E009000980028F9D181
:101DE00008BD10B54FF40060E64908604010086077
:101DF000FFF7ECFFE3480838006808B9012000E06D
:101E0000002010F4006F01D0002010BD4FF40060DE
:101E1000DC49091D0860FFF7D9FFDA480838006877
:101E200010F4006F01D00020EFE74FF40060D549B7
:101E3000091D0860FFF7CAFF0120E6E710B54FF45F
:101E40008060D049091D0860FFF7C0FF4FF40060B3
:101E5000CC49091D0860FFF7B9FF4FF48060C949FC
:101E60000860FFF7B3FF4FF40060C6490860FFF752
:101E7000ADFF10BD10B54FF48060C249091D086068
:101E8000FFF7A4FF4FF40060BE49091D0860FFF78B
:101E90009DFF4FF48060BB490860FFF797FF4FF448
:101EA0008060B849091D0860FFF790FF10BD10B5AC
:101EB0004FF48060B349091D0860FFF787FF4FF4B6
:101EC0000060B0490860FFF781FF4FF48060AD49C2
:101ED0000860FFF77BFF4FF48060AA49091D086086
:101EE000FFF774FF10BD10B54FF48060A549091DC0
:101EF0000860FFF76BFF4FF40060A2490860FFF72E
:101F000065FF4FF480609F490860FFF75FFF9D48C1
:101F10000838006810F4006F06D04FF480609949CB
:101F2000091D0860002010BD4FF480609549091D0F
:101F300008600120F7E770B5044608251DE04FF45E
:101F400080609049091D0860FFF740FF14F0800F82
:101F500004D04FF400608B49086004E04FF4006047
:101F60008849091D08606006040EFFF72FFF4FF433
:101F7000806084490860FFF729FF2800A5F101016E
:101F8000CDB2DCD14FF480607E49091D086070BD80
:101F900070B50825002428027A49086016E060061A
:101FA000040E4FF480607749091D0860FFF70EFFAB
:101FB0004FF4806073490860FFF708FF71480838E4
:101FC000006810F4006F01D044F001042800A5F16E
:101FD0000101CDB2E3D14FF480606A49091D086068
:101FE000204670BD08B501210820FEF72FFD4FF4F3
:101FF0004060ADF8000002208DF8020014208DF83A
:10200000030069465F481038FEF76AFA08BD2DE9FB
:10201000F04105460E4617469846FFF7E2FE10B916
:102020000020BDE8F081002141EA4501C8B2FFF778
:1020300082FFFFF758FF18B9FFF700FF0020F0E715
:102040003046FFF778FFFFF74EFF00240BE018F84B
:102050000400FFF770FFFFF746FF18B9FFF7EEFE29
:102060000020DEE7641CBC42F1DBFFF7E7FE012045
:10207000D7E72DE9F04104460D4616461F463B467C
:10208000324629462046FFF7C2FF10B10020BDE8C6
:10209000F0814FF0FF30FAE72DE9F04105460F4699
:1020A00014461E46FFF79DFE10B90020BDE8F081E2
:1020B000002141EA4501C8B2FFF73DFFFFF713FFDA
:1020C00018B9FFF7BBFE0020F0E73846FFF733FFF3
:1020D000FFF709FFFFF785FE012101EB4501C8B2BB
:1020E000FFF729FFFFF7FFFE0CE0FFF751FF30700D
:1020F000012C02D1FFF7DBFE01E0FFF7BBFE761CEF
:10210000601EC4B2002CF0D1FFF798FE0120CDE78D
:102110002DE9F04104460D4616461F463B46324621
:1021200029462046FFF7B8FF10B10020BDE8F08136
:102130004FF0FF30FAE770B504460D461646FFF73C
:1021400050FE08B9002070BD002141EA4401C8B228
:10215000FFF7F1FEFFF7C7FE18B9FFF76FFE00208B
:10216000F1E72846FFF7E7FEFFF7BDFE3046FFF731
:10217000E2FEFFF7B8FEFFF761FE0120E3E7002073
:1021800070470000100C014038B50446FB4890F839
:102190002400C0B114B10220009001E000200090A2
:1021A000F64A1268D17BF54A526810786B460122D4
:1021B000FFF75FFF10B14FF0FF3038BD9DF8001002
:1021C000EE48417423E0ED48807A10B94FF0FF30BB
:1021D000F3E724B1E948407C08B10020EDE714B1F1
:1021E0000120009001E000200090E44A1268D17BB9
:1021F000E24A526810786B460122FFF73AFF10B1AD
:102200004FF0FF30D9E79DF80010DC484174002002
:10221000D3E738B5002419E0D8480068C07AA04256
:1022200004D0D6480068407DA04200D10CE0D349DC
:10223000496808786B4601222146FFF769FF10B113
:102240004FF0FF3038BD00BF601CC4B2CB484068BF
:102250000079A042E0DC0020F4E770B504460D46AA
:10226000C6480068C07AA04204D0C4480068407DD7
:10227000A04202D14FF0FF3070BDC04840680079E5
:10228000A04202DC4FF0FF30F6E7BC49496808780D
:102290002B4601222146FFF73BFFEDE738B5044608
:1022A000B64890F82300A04201D1002038BD14B1F7
:1022B0003020009001E000200090B048807C20B1E8
:1022C0009DF8000040F002000090AC4890F8220019
:1022D00020B19DF8000040F080000090A74A1268ED
:1022E000117DA64A526810786B460122FFF7C1FEA5
:1022F00010B14FF0FF30D9E7A04880F8234000200C
:10230000D4E738B5044614F0700F02D001200090D5
:1023100005E014B10020009001E040200090974AB1
:102320001268917C954A526810786B460122FFF73B
:10233000A0FE20B1002191488172481E38BD9DF851
:10234000000020F040018D4801730020009014F03F
:10235000400F04D19DF8000040F00400009014F0FC
:10236000200F04D19DF8000040F00200009014F00E
:10237000100F04D19DF8000040F00100009014F00F
:10238000080F04D19DF8000040F0380000907B4A0F
:102390001268D17C794A526810786B460122FFF7A7
:1023A00068FE20B1002175488172481EC6E724B13D
:1023B000082C02D00020FFF771FF704884720021C2
:1023C00001753220FFF7CCFC0020B7E738B5044692
:1023D0006A48807CA04201D1002038BD002C46D044
:1023E000664A12681179654A526810786B46012274
:1023F000FFF78EFE10B14FF0FF30EEE79DF80000C2
:1024000020F0200000905D4A126811795B4A526802
:1024100010786B460122FFF72CFE10B14FF0FF3011
:10242000DBE70320FFF79CFC02200090534890F864
:10243000220020B19DF8000040F0800000904F483D
:1024400090F8230020B19DF8000040F0300000908B
:102450004A4A1268117D494A526810786B46012237
:10246000FFF707FE002851D04FF0FF30B5E7434A91
:1024700012681179414A526810786B460122FFF7C1
:1024800047FE10B14FF0FF30A7E73C48807A10F0CC
:10249000010F05D09DF8000040F02000009004E0FE
:1024A0009DF8000020F020000090344A1268117955
:1024B000324A526810786B460122FFF7DAFD10B1FC
:1024C0004FF0FF3089E70320FFF74AFC2B4890F8D4
:1024D000220010B18020009001E0002000902748E9
:1024E00090F8230020B19DF8000040F030000090EB
:1024F000224A1268117D214A526810786B460122E7
:10250000FFF7B7FD10B14FF0FF3066E71B4884744A
:10251000002062E708B51948807A10B94FF0FF3003
:1025200008BD00200090154A1268D17B134A5268FA
:1025300010786B460122FFF79CFD10B14FF0FF3081
:10254000EEE70E4A126851790C4A526810786B46D1
:102550000122FFF78EFD10B14FF0FF30E0E7074A90
:1025600012681179054A526810786B460122FFF70C
:1025700080FD28B14FF0FF30D2E700006C00002052
:10258000F74890F82400002853D00C200090F44A1B
:1025900012681179F24A526810786B460122FFF7EF
:1025A00068FD10B14FF0FF30BAE73220FFF7D8FBDB
:1025B000C0200090EA48807A10F0010F04D09DF806
:1025C000000040F020000090E54A12681179E44ACA
:1025D000526810786B460122FFF74BFD10B14FF0A7
:1025E000FF309DE7DE48407C10B10220009001E002
:1025F00000200090DA4A1268D17BD94A52681078DC
:102600006B460122FFF735FD10B14FF0FF3087E731
:1026100000200090D24A12685179D14A526810784D
:102620006B460122FFF725FD002855D04FF0FF3003
:1026300076E704200090CA4A12681179C84A5268A5
:1026400010786B460122FFF714FD10B14FF0FF30F8
:1026500066E7C348807C20B9C148807A10F0010F3A
:1026600002D14020009001E060200090BC4A126836
:102670001179BB4A526810786B460122FFF7F9FCCA
:1026800010B14FF0FF304BE73220FFF769FBB44841
:10269000407C10B10120009001E000200090B04A81
:1026A0001268D17BAE4A526810786B460122FFF760
:1026B000E0FC10B14FF0FF3032E7A94A12685179BF
:1026C000A74A52681078A64B10330122FFF7D1FCBD
:1026D00010B14FF0FF3023E7002021E770B504462A
:1026E000002624F001049E4890F8240008B1002040
:1026F00070BD9B48807A10B94FF0FF30F8E79848DA
:10270000057C807A2040964908740846007CA042E7
:1027100002D04FF0FF3600E0002614B99048007D4B
:1027200018B10120FFF730FD02E00020FFF72CFD7B
:102730003CB1FFF7EFFE20B1894805744FF0FF3040
:10274000D6E73046D4E738B504468548807A10B9D4
:102750004FF0FF3038BDBC2C02DB0120009015E0AB
:10276000622C02DB0220009010E02A2C02DB032006
:1027700000900BE0142C02DB0420009006E00A2CF1
:1027800002DB0520009001E0062000907448C07A2A
:102790009DF80010884201D10020DBE7704A1268E2
:1027A00091786F4A526810786B460122FFF761FCFE
:1027B00010B14FF0FF30CDE79DF800106848C172AE
:1027C0000020C7E738B50446282C02DD4FF0FF3063
:1027D00038BDDCB90020FFF761FD00208DF8000056
:1027E00007208DF801005E4A1268917C5C4A5268AD
:1027F00010786B460222FFF73CFC10B14FF0FF301F
:10280000E6E70021564801750020E1E70120FFF7C7
:1028100045FD20208DF80000012C06D100208DF808
:1028200001000520FFF78FFF17E0052C06DC0120D3
:102830008DF801000520FFF786FF0EE0142C06DC62
:1028400002208DF801000A20FFF77DFF05E003203C
:102850008DF801001420FFF776FF9DF80100072195
:1028600001EB8010C0B28DF801003D4A1268917CE6
:102870003B4A526810786B460222FFF7FAFB10B110
:102880004FF0FF30A4E70821354881720021017321
:10289000012101750020FFF721FF002098E738B5DE
:1028A00004462F48807A10B94FF0FF3038BD2C48CD
:1028B00090F8240010B14FF0FF30F7E72848007D72
:1028C00050B134B1282C04DCE0B2FFF77BFF0020CC
:1028D000ECE70020FFF776FF042C01DA042404E083
:1028E000B4F57A7F01DD4FF47A744FF47A7090FB7F
:1028F000F4F0401EC0B20090194A12685178184A8C
:10290000526810786B460122FFF7B3FB10B14FF00D
:10291000FF30CBE79DF80000401C4FF47A7191FB2B
:10292000F0F081B20E48C1810146C9894810FFF715
:102930000AFF0020BAE738B504460948807A10B982
:102940004FF0FF3038BD022C06D0042C0AD0082CE2
:102950000BD0102C0FD10BE0002000900EE00000F7
:102960006C0000200820009008E01020009005E096
:102970001820009002E04FF0FF30E3E700BFF84876
:10298000407A9DF80010B0EBE10F01D10020D9E7AB
:10299000F34A1268D179F24A526810786B460122E4
:1029A000FFF767FB10B14FF0FF30CBE79DF8000059
:1029B000C110EB4841720020C4E738B50446E8482E
:1029C000807A10B94FF0FF3038BDFA2C09D0B4F539
:1029D000FA7F09D0B4F57A7F09D0B4F5FA6F0CD13B
:1029E00008E0002000900BE00820009008E0102094
:1029F000009005E01820009002E04FF0FF30E3E780
:102A000000BFD748007A9DF80010B0EBE10F01D16C
:102A10000020D9E7D24A12689179D14A52681078D9
:102A20006B460122FFF725FB10B14FF0FF30CBE7DB
:102A30009DF80000C010CA4908720020C4E71CB508
:102A400080208DF80000C64A1268917CC44A526802
:102A500010786B460122FFF70CFB10B14FF0FF30EE
:102A60001CBD6420FFF77CF900208DF80000BC4AF3
:102A70001268917CBA4A526810786B460122FFF7BF
:102A8000F8FA10B14FF0FF30EAE7B54A1268917DCD
:102A9000B34A526810786B460622FFF739FB10B133
:102AA0004FF0FF30DCE79DF80500C007400F9DF8B0
:102AB000031001F0010140EA41009DF8011001F00E
:102AC000010140EA01048CB1012C03D10121A44889
:102AD000C17430E0022C03D10021A148C1742AE066
:102AE000A0A0FEF733FF4FF0FF30B9E79C4A126811
:102AF000D1789B4A526810786B460122FFF708FB99
:102B000010B14FF0FF30ABE79DF8000000F00F046C
:102B10002CB99E48FEF71AFF4FF0FF30A0E7042CB7
:102B200006D19BA0FEF712FF01218D48C17402E07F
:102B300000218B48C174FF2189488172FF20884998
:102B40000872FF2186484172C1724FF6FF71C18140
:102B5000FF21017481740121017380F8221000218A
:102B600080F8231041750175163001604160816065
:102B7000163880F8241080F82510C1844FF4FA60CC
:102B8000FFF71BFF10B14FF0FF3069E70220FFF79E
:102B9000D2FE10B14FF0FF3062E72A20FFF7D3FDDD
:102BA00010B14FF0FF305BE73220FFF778FE10B135
:102BB0004FF0FF3054E70020FFF790FD10B14FF0C9
:102BC000FF304DE70020FFF701FC10B14FF0FF3060
:102BD00046E70020FFF795FB002041E77CB504465F
:102BE0000D465F48807A10F0700F02D14FF0FF3031
:102BF0007CBD5B4A1268117B594A526810786B465B
:102C00000622FFF785FA10B14FF0FF30F0E79DF88C
:102C100001009DF8001040EA012000B220809DF8DC
:102C200003009DF8021040EA012000B260809DF888
:102C300005009DF8041040EA012000B2A08015B103
:102C40002846FFF7C2F80020D2E77CB504460D46BF
:102C50004348807A10F0080F02D14FF0FF307CBD5E
:102C60003F4A1268517B3E4A526810786B460622F2
:102C7000FFF74EFA10B14FF0FF30F0E79DF801007A
:102C80009DF8001040EA012000B220809DF803006A
:102C90009DF8021040EA012000B260809DF8050016
:102CA0009DF8041040EA012000B2A08015B128462A
:102CB000FFF78BF80020D2E72DE9FE4F05460C46C2
:102CC0002748807A18B94FF0FF30BDE8FE8F244ABC
:102CD0001268917B224A5268107802AB0222FFF7F9
:102CE00017FA10B14FF0FF30EFE79DF809009DF89B
:102CF000081040EA012006B214B12046FFF765F83B
:102D000017494968C88802F097FA1549019049683F
:102D1000B1F9080002F087FA8346304602F083FAE0
:102D20005946009002F0EAF88246019902F022F931
:102D300081461F4902F090F880464FF08F4102F023
:102D4000E3F8074602F07DFA28600020BDE710B5E1
:102D500088B004461CB94FF0FF3008B010BD29E020
:102D60006C000020556E737570706F72746564200E
:102D7000736F6674776172652070726F64756374C7
:102D8000207265762025642E0A000000E0620008AB
:102D900048616C662073656E7369746976697479CD
:102DA000207061727420666F756E642E0A000000D8
:102DB00000000C42206830B9606820B9A06810B9E2
:102DC000002008B010BDFA494968087806AB032214
:102DD0001146FFF79DF910B14FF0FF30F1E79DF874
:102DE0001800082101EB201000F00F00ADF80000E2
:102DF0009DF8190001EB201000F00F00ADF8020063
:102E00009DF81A0001EB201000F00F00ADF804004F
:102E100020684100BDF90000403091FBF0F000B2A5
:102E2000ADF8100060684100BDF90200403091FB30
:102E3000F0F000B2ADF81200A0684100BDF9040046
:102E4000403091FBF0F000B2ADF81400D849496869
:102E5000087806AB06221146FFF75AF910B14FF079
:102E6000FF30AEE79DF819009DF8181040EA0120E8
:102E700000B2ADF808009DF81B009DF81A1040EA5A
:102E8000012000B2ADF80A009DF81D009DF81C104D
:102E900040EA012000B2ADF80C00BDF81000BDF80A
:102EA0000810084400B2ADF81000BDF81200BDF8DB
:102EB0000A10084400B2ADF81200BDF81400BDF8C5
:102EC0000C10084400B2ADF81400BDF81000000A60
:102ED0008DF81800BDF81000C0B28DF81900BDF8CB
:102EE0001200000A8DF81A00BDF81200C0B28DF869
:102EF0001B00BDF81400000A8DF81C00BDF814007A
:102F0000C0B28DF81D00AA494968087806AB0622B0
:102F10001146FFF7AEF810B14FF0FF3051E7002037
:102F20004FE70146A248007A30B1012807D00228B5
:102F300009D003280FD10AE0FA2008800EE04FF4F0
:102F4000FA7008800AE04FF47A70088006E04FF4C7
:102F5000FA60088002E00020088000BF00BF002067
:102F6000704701469248407A30B1012807D00228C4
:102F700008D003280CD108E0022008700BE00420E0
:102F8000087008E00820087005E01020087002E0D2
:102F90004FF0FF30704700BF8548C07C18B10878FB
:102FA0004006000E08700020F4E701468048C07A11
:102FB000082817D2DFE800F01704070A0D101318CD
:102FC000BC20088013E06220088010E02A200880DE
:102FD0000DE0142008800AE00A20088007E00520A0
:102FE000088004E000BF00BF0020088000BF00BFD1
:102FF0000020704701466E4890F8240010B14FF051
:10300000FF3070476A48C08908800020F9E7014610
:1030100000200880401E704701464FF0FF30704787
:1030200001466348007A30B1012807D0022808D051
:1030300003280CD108E05F4808600BE05E48086098
:1030400008E05E48086005E05D48086002E04FF077
:10305000FF30704700BF0020FBE701465448407A2C
:1030600030B1012808D002280AD0032810D10BE083
:103070004FF4804008800EE041F69C7008800AE022
:103080004FF48050088006E04FF40060088002E0B2
:103090004FF0FF30704700BF4548C07C10B1088832
:1030A000401008800020F5E701464148007C087088
:1030B0000020704701463E48807A10B10120087018
:1030C00001E0002008700020704738B504463848F9
:1030D000807A10B94FF0FF3038BD354A1268117C44
:1030E000334A526810786B460222FFF711F810B18C
:1030F0004FF0FF30F0E79DF801009DF8001040EA26
:10310000012000B220800020E6E72DE9FE4F0746AF
:10311000884692461D46DDF830B00026002424483B
:1031200090F8240010B1601EBDE8FE8F00202870CA
:103130001F48807A10B94FF0FF30F5E71C48007C3B
:1031400010B94FF0FF30EFE71948007C10F0400F46
:1031500001D0B01CC6B21648007C10F0200F01D080
:10316000B01CC6B21248007C10F0100F01D0B01C89
:10317000C6B20F48007C10F0080F01D0B01DC6B2D7
:103180000B4A1268917A0A4A526810786B460222FA
:10319000FEF7BEFF10B14FF0FF30C5E79DF801000C
:1031A0009DF8001040EA0129B1450BDA0020BBE789
:1031B0006C000020000003430000834233330342CD
:1031C00033338341FA4840684088B9EB600F17DD1C
:1031D000F74A1268517CF64A526810786B46012211
:1031E000FEF796FF10B14FF0FF309DE79DF800000D
:1031F00010F0100F04D0FFF78DF96FF0010093E786
:103200005046FEF7E2FDEA4A1268D17AE84A52686F
:1032100010786B463246FEF77BFF10B14FF0FF305F
:1032200082E799FBF6F0401E8BF800000020287022
:10323000B4422AD0DE48007C10F0080F25D0601C74
:103240001DF800001DF8041040EA012000B2A8F8A3
:103250000000E01C1DF80010A01C1DF8000041EA51
:10326000002000B2A8F80200601D1DF80010201D0B
:103270001DF8000041EA002000B2A8F804002878F8
:1032800040F008002870A01D84B2B44213D0C84892
:10329000007C10F0400F0ED0601C1DF800001DF8DF
:1032A000041040EA012000B23880287840F0400045
:1032B0002870A01C84B2B44213D0BD48007C10F02A
:1032C000200F0ED0601C1DF800001DF8041040EA0D
:1032D000012000B27880287840F020002870A01CDF
:1032E00084B2B44213D0B248007C10F0100F0ED05C
:1032F000601C1DF800001DF8041040EA012000B217
:10330000B880287840F010002870A01C84B20020FB
:103310000AE7F8B504460F461646A54890F824007B
:1033200010B94FF0FF30F8BDA148807A10B94FF0C6
:10333000FF30F8E79E4A1268917A9D4A52681078E9
:103340006B460222FEF7E4FE10B14FF0FF30EAE7D1
:103350009DF801009DF8001040EA0125A54203DA1E
:1033600000203070401EDEE7914840684088B5EB91
:10337000600F17DD8E4A1268517C8D4A52681078B2
:103380006B460122FEF7C4FE10B14FF0FF30CAE7D2
:103390009DF8000010F0100F04D0FFF7BBF86FF09D
:1033A0000100C0E7E2B2824B1B68D97A804B5B68B0
:1033B00018783B46FEF7ACFE10B14FF0FF30B2E795
:1033C00095FBF4F0401E30700020ACE701467848D1
:1033D00080F82210002070477CB505467449496882
:1033E000087801AB04220D21FEF792FE08B10720F8
:1033F0007CBD9DF80700C0F301109DF8041001F09A
:10340000E00140EAE1008DF800009DF80700C0F3FC
:1034100081009DF8051001F0E00140EAE1008DF81F
:1034200001009DF8070000F003009DF8061001F070
:10343000E00140EAE1008DF8020000241CE01DF8E4
:10344000040018B9002045F8240013E0594845F855
:10345000240006E055F82400574901F055FD45F8D1
:1034600024001DF80400401E10F0FF000DF80400B9
:10347000F0D100BF601CC4B2032CE0DB0020B7E732
:103480002DE9FE4F06460F4600256846FFF7A4FFCC
:10349000002440E056F8240057F82410B0EB010A4D
:1034A00001D4514601E0CAF10001084601F0BBFE1B
:1034B00083464FF08F4101F05DFD80465DF82400AA
:1034C000002101F01BFF16D05DF82410404601F0EA
:1034D00051FD82464FF07E5101F010FD814629F0EA
:1034E000004A3648416A504601F012FF12D20120CC
:1034F000A04005430EE03148C169404601F0FEFEA0
:1035000005D32E48016A404601F002FF02D2012095
:10351000A0400543641C032CBCDB2846BDE8FE8F9D
:103520002DE9FC5F06460F460025214949680878C9
:1035300001AB03220D21FEF7EBFD10B10720BDE822
:10354000FC9F9DF8040000F01F008DF804009DF81A
:10355000050000F01F008DF805009DF8060000F042
:103560001F008DF80600002460E056F8240057F88C
:103570002410B0EB010B01D4594601E0CBF100015E
:10358000084601F050FE4FF08F41009001F0F2FC30
:10359000814601A8005DC0B30849086801F04CFEEF
:1035A00083465946064801F0E5FC80460FE00000DE
:1035B0006C0000207B14AE3E1D5A843FB8620008A8
:1035C00000B04C45FE49404601F09EFC804601A8F3
:1035D000005D401E10F0FF0001A90855F2D14146E0
:1035E000484601F0C7FC83464FF07E5101F086FC4F
:1035F00082462AF0004BF3488169584601F088FE64
:1036000013D20120A04005430FE0FFE7ED48016918
:10361000484601F073FE05D3EA484169484601F087
:1036200077FE02D20120A0400543641C032C9CDBE2
:10363000284684E72DE9F04F87B005460C469146B1
:1036400001208DF8100000208DF81100DE4A12686C
:10365000917CDD4A5268107804AB0222FEF709FD26
:1036600020B14FF0FF3007B0BDE8F08FC820FEF763
:1036700077FB00208DF81000D34A1268D17BD24A24
:103680005268107804AB0122FEF7F3FC10B14FF042
:10369000FF30E8E7CC4A12685179CB4A526810787B
:1036A00004AB0122FEF7E5FC10B14FF0FF30DAE782
:1036B000C54A1268917CC44A5268107804AB012252
:1036C000FEF7D7FC10B14FF0FF30CCE7BE4A1268CE
:1036D000D17DBD4A5268107804AB0122FEF7C9FCC7
:1036E00010B14FF0FF30BEE7B74A12681179B64A01
:1036F0005268107804AB0122FEF7BBFC10B14FF00A
:10370000FF30B0E70C208DF81000AF4A1268117935
:10371000AD4A5268107804AB0122FEF7AAFC10B142
:103720004FF0FF309FE70F20FEF71AFBA648806A94
:10373000407A8DF81000A44A12689178A24A526823
:10374000107804AB0122FEF794FC10B14FF0FF306B
:1037500089E79D48806A007A8DF810009A4A1268BD
:103760005178994A5268107804AB0122FEF781FC27
:1037700010B14FF0FF3076E7B9F1000F07D0924853
:10378000806A807A40F0E0008DF8100004E08E48F6
:10379000806A807A8DF810008B4A126891798A4A83
:1037A0005268107804AB0122FEF763FC10B14FF0B1
:1037B000FF3058E7B9F1000F07D08348806AC07A1C
:1037C00040F0E0008DF8100003E07E48C07A8DF8EC
:1037D00010007D4A1268D1797B4A5268107804AB98
:1037E0000122FEF746FC10B14FF0FF303BE7B9F184
:1037F000000F02D0C820FEF7B3FA40208DF8100069
:10380000714A12681179704A5268107804AB01222B
:10381000FEF72FFC10B14FF0FF3024E778208DF831
:103820001000694A12685179674A5268107804ABEF
:103830000122FEF71EFC10B14FF0FF3013E7614983
:103840008889FEF78DFA00208DF810005E4A126814
:1038500051795D4A5268107804AB0122FEF709FCE9
:1038600010B14FF0FF30FEE6574A1268917A564A7F
:103870005268107804AB0222FEF74AFC10B14FF0F8
:10388000FF30F0E69DF811009DF8101040EA012B82
:103890000C209BFBF0F0C6B20020A8606860286096
:1038A000A06060602060824665E0474A1268D17A75
:1038B000454A5268107804AB0C22FEF729FC10B17F
:1038C0004FF0FF30CFE69DF811009DF8101040EA50
:1038D000012000B2ADF808009DF813009DF8121009
:1038E00040EA012000B2ADF80A009DF815009DF8ED
:1038F000141040EA012000B2ADF80C00BDF9081028
:10390000206808442060BDF90A10606808446060BF
:10391000BDF90C10A0680844A0609DF817009DF840
:10392000161040EA012000B2ADF800009DF8190021
:103930009DF8181040EA012000B2ADF802009DF891
:103940001B009DF81A1040EA012000B2ADF80400F7
:10395000BDF90010286808442860BDF902106868A5
:1039600008446860BDF90410A8680844A8600AF11A
:10397000010000F0FF0AB24597DB1248D0F800C002
:103980002868C117090441EA104107046246002370
:10399000384601F0F7F932460023CDE9020101F083
:1039A000F1F928600748D0F800C06868C117090419
:1039B00041EA1041070462460023384606E0000051
:1039C00054E3853FB86200086C00002001F0DAF98A
:1039D00032460023CDE9020101F0D4F96860FE48C7
:1039E000D0F800C0A868C117090441EA10410704D3
:1039F00062460023384601F0C5F932460023CDE97E
:103A0000020101F0BFF9A860F348D0F804C02168B2
:103A1000C817000440EA11480F04624600233846E4
:103A2000414601F0AFF932460023CDE9020101F031
:103A3000A9F92060E848D0F804C06068C1170904FB
:103A400041EA1041070462460023384601F09AF922
:103A500032460023CDE9020101F094F96060DE48AE
:103A6000D0F804C0A068C117090441EA1041070456
:103A700062460023384601F085F932460023CDE93D
:103A8000020101F07FF9A060A068002804DDA068B1
:103A9000A0F58030A06003E0A06800F58030A06051
:103AA0000020E0E538B50446CC4890F82400A04258
:103AB00001D1002038BD24B3C84890F8250010B9C2
:103AC0004FF0FF30F6E70020FEF75EFB0020FEF728
:103AD0007DFCC249C88CFEF7E2FE00200090BF4981
:103AE000496808786B4601222321FEF7C2FA0121BA
:103AF000BA4880F824100120FEF746FBFEF70AFDC5
:103B000013E00020FEF740FBB448007C0090B3496E
:103B1000496808786B4601222321FEF7AAFA0021A2
:103B2000AE4880F82410FEF7F5FC0020C2E72DE92E
:103B3000F04F8DB083460F4602200C90A74890F8B6
:103B4000240020B10020FFF7ADFF012600E0002691
:103B500003A8FFF7E6F905A8FFF703FA01A8FFF7A6
:103B600024FA02A8FFF746FA9C4890F80AA004A895
:103B7000FFF79AFA002407E0002239465846FFF77B
:103B800059FD00B902E0641C022CF5DB00BF022CD9
:103B900001D1002528E0002407E0012206A909A898
:103BA000FFF748FD00B902E0641C022CF5DB00BF02
:103BB000022C01D1002517E006A93846FFF760FC6A
:103BC00000F0FF0809A95846FFF7AAFC00F0FF091A
:103BD0000025B9F1000F01D145F00105B8F1000F42
:103BE00001D145F0020500BFFF207C490872FF218A
:103BF0007A484172C1724FF6FF71C181FF21817213
:103C0000017401210173BDF80C00FEF7D6FE9DF88A
:103C10001400FEF790FEBDF80400FEF794FDBDF819
:103C20000800FEF73CFE5046FEF76BFB9DF81000C7
:103C3000FEF754FD16B10120FFF734FF28460DB002
:103C4000BDE8F08FF8B504460D46164616B94FF09C
:103C5000FF30F8BD6148807A10B94FF0FF30F8E7C7
:103C600020128DF80000E0B28DF801009DF80100EF
:103C700028445A4949684989884202DD4FF0FF309B
:103C8000E7E7564A1268117E544A526810786B462C
:103C90000222FEF7EEF910B14FF0FF30D9E7EAB299
:103CA0004E4B1B68597D4D4B5B6818783346FEF7C9
:103CB000E0F910B14FF0FF30CBE70020C9E7F8B5CD
:103CC00004460D46164616B94FF0FF30F8BD43487E
:103CD000807A10B94FF0FF30F8E720128DF800001D
:103CE000E0B28DF801009DF8010028443B49496885
:103CF0004989884202DD4FF0FF30E7E7374A126812
:103D0000117E364A526810786B460222FEF7B1F9EE
:103D100010B14FF0FF30D9E7EAB2304B1B68597D44
:103D20002E4B5B6818783346FEF7F2F910B14FF06E
:103D3000FF30CBE70020C9E72DE9F04385B0054609
:103D40000E4690469946254890F8250020B14FF040
:103D5000FF3005B0BDE8F08316B94FF0FF30F8E74B
:103D6000002423E0281B102801DD102000E0281B80
:103D700087B2321939462046FFF764FF10B14FF081
:103D8000FF30E6E701AA39462046FFF798FF10B159
:103D90004FF0FF30DDE730193A4601A901F04FF846
:103DA00010B16FF00100D4E7E01984B2AC42D9DB66
:103DB0004FEA28208DF8000008F0FF008DF8010080
:103DC000064A1268917E054A526810786B460222B4
:103DD000FEF74FF938B103E0B86200086C0000202C
:103DE0004FF0FF30B5E701218A4880F82510A0F890
:103DF00026900020ADE70146864890F82400087020
:103E00000020704702464FF0FF30704701464FF0E8
:103E1000FF307047F8B505460F461446002C70D0A9
:103E2000B5F5FF5F01DDFF2605E0202D01DA012653
:103E300001E0C5F3471607B90127282C02DD4FF032
:103E4000FF30F8BD7348407D28BB724890F82400CD
:103E500038B10020FFF726FE01216E4880F82010BF
:103E600003E000216B4880F820106A481630FFF705
:103E700058F868481830FFF774F866481A30FFF7AA
:103E800094F864481C30FFF7B5F86248817A81776E
:103E90001F30FFF709F90020FEF776F90020FEF742
:103EA00091FC00208DF800005A4A12689178594A16
:103EB000526810786B460122FEF7DBF810B14FF024
:103EC000FF30BEE740208DF80000524A1268D17BD7
:103ED000504A526810786B460122FEF7CAF800B1CA
:103EE00065E08DF800608DF801704A4A1268117A19
:103EF000484A526810786B460222FEF7BAF808B1B9
:103F000055E047E00520FDF72BFF4248407A0721A6
:103F100001EBC000C0B28DF800003E4A1268D179B2
:103F20003C4A526810786B460122FEF7A2F800B1B5
:103F30003DE020208DF80000012C03D100208DF8F9
:103F400001000EE0052C03DC01208DF8010008E0E3
:103F5000142C03DC02208DF8010002E003208DF810
:103F600001009DF80100072101EB8010C0B28DF81F
:103F70000100284A1268917C264A526810786B46E4
:103F80000222FEF776F800B111E0012121484175C7
:103F9000002056E71F4A1632002103E0505C00B1B2
:103FA00005E0491C0C29F9D34FF0FF3049E7FF2009
:103FB00018490872FF2117484172C1724FF6FF710C
:103FC000C181FF2181720174012101730146887F43
:103FD000FEF797F90F49C88AFEF7EFFC0D49087EF6
:103FE000FEF7A9FC0B49488BFEF7ADFB0949888B0E
:103FF000FEF755FC0749C87FFEF770FB054890F8AF
:10400000200010B10120FFF74DFD0021014841754E
:10401000002016E76C00002010B5C8234FF4806222
:10402000F74940F6F630FFF787FE10BD10B586B0B1
:104030000446F4A000680390F3A000680290F3A087
:1040400000680190F2A00068009004F0030003A94A
:10405000085C8DF8140003A8C4F3C101405C8DF81E
:10406000150003A8C4F38111405C8DF8160004F01C
:10407000030002A9085C8DF8100002A8C4F3C10176
:10408000405C8DF8110002A8C4F38111405C8DF8EA
:10409000120005AA032140F22640FFF7D3FD18B114
:1040A0004FF0FF3006B010BD04AA032140F22A40B1
:1040B000FFF7C8FD10B14FF0FF30F3E7019805900E
:1040C0000098049014F0040F0BD09DF8140040F0F9
:1040D00001008DF814009DF8100040F001008DF8EB
:1040E000100014F0200F0BD09DF8150040F00100D7
:1040F0008DF815009DF8110040F001008DF81100B9
:1041000014F4807F0BD09DF8160040F001008DF86C
:1041100016009DF8120040F001008DF8120005AA6B
:1041200003214FF48860FFF78DFD10B14FF0FF3091
:10413000B8E704AA032140F23140FFF783FD10B134
:104140004FF0FF30AEE7B34804810020AAE71FB567
:104150000446B048007A00F0030054F820000190B3
:10416000AC48007A10F0040F02D001984042019050
:10417000A848007AC0F3C10054F820000290A54876
:10418000007A10F0200F02D0029840420290A1481D
:10419000007AC0F3811054F8200003909D480089F4
:1041A00010F4807F02D00398404203909A4901980E
:1041B00080FB0101800F40EA81000190964902983E
:1041C00080FB0110820042EA9170029092490398AC
:1041D00080FB0110820042EA917003900198000E6A
:1041E0008DF800000198000C8DF801000198000A7C
:1041F0008DF802000198C0B28DF803006A460421D0
:104200004FF47470FFF71EFD18B14FF0FF3004B08B
:1042100010BD0298000E8DF800000298000C8DF879
:1042200001000298000A8DF802000298C0B28DF8D1
:1042300003006A4604214FF47570FFF703FD10B1C7
:104240004FF0FF30E3E70398000E8DF8000003986D
:10425000000C8DF801000398000A8DF80200039805
:10426000C0B28DF803006A4604214FF47670FFF760
:10427000E9FCCCE770B588B0064601A8FEF7EDFE74
:10428000BDF804000021C90341EA5045C403614858
:10429000007A00F0030056F8200005905D48007A8F
:1042A00010F0040F02D00598404205905948007A5A
:1042B000C0F3C10056F8200006905648007A10F06E
:1042C000200F02D00698404206905248007AC0F370
:1042D000811056F8200007904E48008910F4807F26
:1042E00002D00798404207900598C117A0FB04230D
:1042F00001FB043100FB0510810041EA927005903A
:104300000698C117A0FB042301FB043100FB051034
:10431000810041EA927006900798C117A0FB042320
:1043200001FB043100FB0510810041EA9270079007
:104330000598000E8DF808000598000C8DF809000E
:104340000598000A8DF80A000598C0B28DF80B0098
:104350000698000E8DF80C000698000C8DF80D00E4
:104360000698000A8DF80E000698C0B28DF80F006E
:104370000798000E8DF810000798000C8DF81100BA
:104380000798000A8DF812000798C0B28DF8130044
:1043900002AA0C214FF42570FFF754FC08B070BD41
:1043A00030B585B004461DA207CA02AB07C3C82CAE
:1043B00003DD4FF0FF3005B030BDC82090FBF4F0B6
:1043C000401E85B2280A8DF80000E8B28DF8010081
:1043D0006A46022140F21620FFF734FC10B14FF07C
:1043E000FF30E8E702AA0C2140F6C120FFF72AFCC3
:1043F00010B14FF0FF30DEE7064884810020DAE795
:104400002D6300084CCD6C000CC92C00365676008C
:1044100026466600A002002009E3CA02FEF2ABC4F1
:10442000AAF1DFDFBBAFDFDF0146FC4880890880EF
:10443000002070472DE9FC4706460F4616F0070F8F
:1044400002D0B7F5C86F03DD4FF0FF30BDE8FC8741
:10445000384600F0F1FE8146F14900F08BFD8046C0
:104460006846FEF77EFD9DF80000022806D004286D
:1044700016D0082826D0102848D135E04FF08D41BD
:10448000404600F041FD814600F0F4FE84B2E5496B
:10449000404600F039FD814600F0ECFE85B238E080
:1044A0004FF08C41404600F02FFD814600F0E2FEC7
:1044B00084B2DD49404600F027FD814600F0DAFE77
:1044C00085B226E04FF08B41404600F01DFD81464D
:1044D00000F0D0FE84B2D549404600F015FD81467B
:1044E00000F0C8FE85B214E04FF08A41404600F06B
:1044F0000BFD814600F0BEFE84B2CD49404600F07F
:1045000003FD814600F0B6FE85B202E04FF0FF30B9
:104510009CE700BF20128DF80400E0B28DF8050082
:1045200028128DF80600E8B28DF8070016F0010F8A
:1045300014D001AA02214FF4EA70FFF783FB10B1F7
:104540004FF0FF3082E70DF1060202214FF4927026
:10455000FFF778FB10B14FF0FF3077E716F0020F4E
:1045600014D001AA02214FF4EC70FFF76BFB10B1DD
:104570004FF0FF306AE70DF1060202214FF494700C
:10458000FFF760FB10B14FF0FF305FE716F0040F4C
:1045900014D001AA02214FF4EE70FFF753FB10B1C3
:1045A0004FF0FF3052E70DF1060202214FF49670F2
:1045B000FFF748FB10B14FF0FF3047E7002045E719
:1045C00038B504460020009014F0010F04D09DF887
:1045D000000040F03000009014F0020F04D09DF86D
:1045E000000040F00C00009014F0040F04D09DF87F
:1045F000000040F0030000906A4601214FF4A470CF
:10460000FFF720FB38BD38B50446012C01DA012440
:1046100002E0042C00DD0424601EC0B200906A4653
:10462000012140F24F10FFF70DFB38BD38B50446AD
:10463000052094FBF0F085B228128DF80000E8B256
:104640008DF801006A4602214FF4EF70FFF7FAFA85
:1046500038BD38B50446052094FBF0F085B2281229
:104660008DF80000E8B28DF801006A4602214FF48F
:10467000ED70FFF7E7FA38BDF8B505460E464FF482
:104680007A7095FBF0F000FB06F4200E8DF8000028
:10469000200C8DF80100200A8DF80200E0B28DF8A0
:1046A00003006A4604214FF4AE70FFF7CBFAF8BD61
:1046B00038B50446052094FBF0F084B220128DF842
:1046C0000000E0B28DF801006A4602214FF4AD709F
:1046D000FFF7B8FA38BD38B50446052094FBF0F072
:1046E00084B220128DF80000E0B28DF801006A4615
:1046F00002214FF4AC70FFF7A5FA38BD38B5044677
:1047000014B94FF0FF3038BD6A4604214FF4587099
:10471000FFF7D5FA10B14FF0FF30F4E79DF8000035
:1047200000069DF8011040EA01409DF8021040EAA1
:1047300001209DF80310084320600020E3E738B50E
:104740000446200E8DF80000200C8DF80100200A90
:104750008DF80200E0B28DF803006A4604214FF4A0
:104760005870FFF76FFA38BD38B5044614B94FF0EA
:10477000FF3038BD6A4604214FF47170FFF79FFA8D
:1047800010B14FF0FF30F4E79DF8000000069DF8EF
:10479000011040EA01409DF8021040EA01209DF816
:1047A0000310084300EB8000800020600020E0E759
:1047B00038B504461420B4FBF0F4200E8DF8000048
:1047C000200C8DF80100200A8DF80200E0B28DF86F
:1047D00003006A4604214FF47170FFF733FA38BDC5
:1047E00038B5044664B120208DF8000028208DF8EB
:1047F000010030208DF8020038208DF8030004E01D
:10480000A3220421684600F0FCFA6A46042140F61F
:104810009E20FFF717FAFDF77DFE38BDA0020020AD
:1048200000004843000040460000C04500004045ED
:104830000000C04438B5044664B1C0208DF80000C3
:10484000C2208DF80100C4208DF80200C6208DF82A
:10485000030004E08B220421684600F0D2FA6A4685
:10486000042140F69820FFF7EDF9FDF753FE38BD1F
:104870003EB504466CB1FCA1D1E900208968CDE9C0
:10488000002002916A4609214FF49760FFF7DAF998
:104890003EBDF8A2D2E900109268CDE90102009174
:1048A0006A4609214FF49760FFF7CCF9F0E73EB56F
:1048B000044602208DF80000CA208DF80100E32094
:1048C0008DF8020009208DF803006A460421682053
:1048D000FFF7B8F9A3208DF8000014F0400F09D0BD
:1048E000C0208DF80100C8208DF80200C2208DF88C
:1048F000030006E0A3208DF801008DF802008DF87A
:10490000030014F4C07F09D0C4208DF80400CC202B
:104910008DF80500C6208DF8060006E0A3208DF86E
:1049200004008DF805008DF80600A3208DF807001F
:104930008DF808008DF809006A460A2140F6A72084
:10494000FFF780F914F0030F03D020208DF800004A
:1049500002E0D8208DF800006A46012140F6B6201A
:10496000FFF770F914F0200F03D00120FFF780FF4C
:1049700002E00020FFF77CFF14F4C07F21D014F484
:10498000807F0CD0B2208DF800008B208DF80100C4
:10499000B6208DF802009B208DF803000BE0B020BC
:1049A0008DF8000080208DF80100B4208DF8020001
:1049B00090208DF803006A46042140F6A220FFF7FC
:1049C00041F914F0010F24D0F8208DF800006A4658
:1049D00001214FF40B60FFF735F9FA210720FFF7AB
:1049E00029FD0720FFF7ECFD0120FFF70CFE6420F6
:1049F000FFF71CFE4FF4FA70FFF72BFEC821A0480A
:104A0000FFF73AFE2820FFF753FE0A20FFF763FE68
:104A100008E0D8208DF800006A4601214FF40B60B1
:104A2000FFF710F914F0020F03D0D9208DF8000021
:104A300002E0D8208DF800006A46012140F23D7066
:104A4000FFF700F914F0040F03D00120FFF7F2FE86
:104A500002E00020FFF7EEFE14F0100F03D001205B
:104A6000FFF7BEFE02E00020FFF7BAFE44F00800A8
:104A700084494881FDF74EFD00208249887314F077
:104A8000400F03D00846807B801D887314F4C07FDC
:104A900004D07C48807B801D7A49887314F0140F01
:104AA00004D07848807B10307649887314F0030F67
:104AB00004D07448807B001D7249887300203EBD7D
:104AC0000146704840890880002070472DE9F04178
:104AD0000446E07800F0C006E07800F03F0560781A
:104AE00010F0010F13D0EF102846E91705EB5171B4
:104AF000C910A5EBC101491C01F0FF08614800681D
:104B000020B16048414602683846904700BF60784F
:104B100010F0080F06D05B48406818B1B011594A30
:104B2000516888470020BDE8F08110B586B0044682
:104B300055A207CA03AB07C356A207CA8DE80700F0
:104B4000012C09D0022C0ED103AA0B2140F68220A1
:104B5000FFF778F806B010BD6A460B2140F68220B8
:104B6000FFF770F8F6E74FF0FF30F3E72DE9F04F6D
:104B70008DB00746884615469946DDE9166B002438
:104B8000002030803F49887B5A4605A9FEF7C1FBCB
:104B900018B1601E0DB0BDE8F08F3A48807A10F071
:104BA000140F7DD09DF8140000069DF8151040EA02
:104BB00001409DF8161040EA01209DF817100843A7
:104BC00028609DF8180000069DF8191040EA014081
:104BD0009DF81A1040EA01209DF81B1008436860F8
:104BE0009DF81C0000069DF81D1040EA01409DF84C
:104BF0001E1040EA01209DF81F100843A8609DF890
:104C0000200000069DF8211040EA01409DF8221086
:104C100040EA01209DF823100843E86004F11000E9
:104C2000C4B2286800140190686800140290A86853
:104C300000140390E868001404900198404302991E
:104C400001FB0100039901FB0100049901FB010A2A
:104C5000BAF1706F02DBBAF1885F22DDFDF75AFC12
:104C600000203080401E95E7B8AAB38DB4980D356A
:104C70005D000000B8AAAAAAB088C3C5C70000009A
:104C800009E3CA02A0020020D8B1B9F38BA391B600
:104C900009B4D900DAB1B9F38BA391B6DAB4DA006A
:104CA00005E0B6F9000040F48070308000BF344861
:104CB000807A10F0400F24D005A9601C085C095DC3
:104CC00040EA012000B2A8F8000005A9E01C095C38
:104CD00005AAA01C105C41EA002000B2A8F802005E
:104CE00005A9601D095C201D105C41EA002000B28E
:104CF000A8F80400A01DC4B2B6F9000040F00800F6
:104D000030801F48408910F4C07F21D005A9601C65
:104D1000085C095D40EA012000B2388005A9E01C6A
:104D2000095C05AAA01C105C41EA002000B2788052
:104D300005A9601D095C201D105C41EA002000B23D
:104D4000B880A01DC4B2B6F9000040F070003080F9
:104D50000B48807A10F0030F03D005A90819FFF75C
:104D6000B5FE4846FDF731F8002013E70146044838
:104D700001600020704701460148416000207047F3
:104D8000A00200202DE9F04100242546002905DA83
:104D900001240027D0EB070067EB0101002B05DAA7
:104DA0000027D2EB0702012567EB030300F0D0FADE
:104DB00086460E4617469C46AC4204D00025D0EBF2
:104DC000050E65EB010624B10020D2EB000760EB75
:104DD000030C704631463A466346BDE8F08140EA2E
:104DE00001039B0703D009E008C9121F08C0042A69
:104DF000FAD203E011F8013B00F8013B521EF9D250
:104E00007047D2B201E000F8012B491EFBD2704777
:104E10000022F6E710B513460A4604461946FFF786
:104E2000F0FF204610BD421E12F8013F002BFBD1BF
:104E300011F8013B02F8013B002BF9D1704730B566
:104E400004460020034600E05B1C934203D2E05C72
:104E5000CD5C401BF8D030BDF0B480EA0102D40F25
:104E60004200B2EB410F02D20246084611464A0008
:104E700042D0C30DDDB2C1F3C752AD1A202D35DAD1
:104E8000C1F3160141F4000204B15242C5F12006FB
:104E900002FA06F12A411044B3EBD05F23D0C4B12B
:104EA000012DA0EBC35009DCF0BC4FF0004202EA38
:104EB000C35200F50000DBB200F0A5BA400000F1DB
:104EC000807000EBC350A0F1807040EAD1704900BF
:104ED00009E0490841EAC071A0EBC35000F50000A9
:104EE000400800EBC350F0BC00F084BA61420122DC
:104EF00002EB4101001BF6E7F0BC704781F0004176
:104F0000AAE780F00040A7E780EA010210B502F0AE
:104F10000043400026D04A0023D04FEA106101EB45
:104F20001261C0F35600C2F3560240F4000042F48E
:104F30000002A0FB0220A1F17F014FEA004014040F
:104F400001D000F1010050EA124001D44000491E96
:104F5000C2B20C0604EBD010401C4008802A02D0DC
:104F600003E0002010BD20F00100002900DA00203D
:104F7000184310BD30B480EA010202F0004530F061
:104F8000004221F0004015D0A0B1C0F3C753C2F3D6
:104F9000C754C2F31601C0F31600E41A41F400012D
:104FA00040F400027D34914201D3641C00E04900CA
:104FB000002C02DA30BC002070474FF400000023C0
:104FC000914201D3891A034340084FEA4101F7D1C6
:104FD00051B1914202D14FF0004105E002D24FF0B1
:104FE000010101E06FF0010103EBC450284430BC23
:104FF00000F000BA2DE9FE4F804681EA0300C00FA1
:105000000C46009021F0004123F00045B8EB02006F
:10501000A94105D24046214690461C460B46024611
:1050200023F00040104304D14046214603B0BDE8C0
:10503000F08F270DC7F30A00C3F30A510290401AFC
:105040000190402866DAC3F3130040F4801B0098F7
:10505000924620B10023D2EB030A63EB0B0B0198BD
:105060005946C0F14002504600F0A3F906460D46ED
:1050700050465946019A00F0ABF910EB0800614127
:10508000002487EA115284EAE7731A433BD0009A5E
:105090003AB3019A012A4FEA075210DC001B61EB78
:1050A00002014FF0004202EA0752CDE90042001C23
:1050B00041F5801132462B4600F0DFF9B6E7001BC0
:1050C00061EB0201001C41F5801300185B412018C0
:1050D000A2F5001747EB030140EAD570B6196D4100
:1050E00011E06D084FEA360645EAC0754FEA0752EF
:1050F000001B61EB0201001C41F5801149084FEAD9
:1051000030000019514132462B4603B0BDE8F04F44
:1051100000F0A6B90098012240000023D0EB020263
:1051200063EBE073009821464FEAE074B8EB0000AF
:1051300061EB0401E9E783F000435BE781F00041A4
:1051400058E72DE9FE4F81EA030404F0004421F002
:10515000004100944FF0000B23F0004350EA01049B
:1051600002D052EA030404D10020014603B0BDE896
:10517000F08FC3F30A54C1F30A552C44A4F2F3345C
:105180000194A0FB0254C1F3130141F48011C3F355
:10519000130343F4801301FB024400FB034E840A13
:1051A000970A44EA815447EA8357A4FB07680295AB
:1051B0008D0A05FB07854FEA932C04FB0C54270549
:1051C000029D4FEA065847EA1637B5EB08056EEB25
:1051D000070C870E920E47EA811742EA8312A7FB5B
:1051E0000201B6EB0B0164EB00042B0D43EA0C3318
:1051F0005E1844EB1C50DA465146E7FB0201C5F34A
:1052000013044FEA0B3343EA14534FEA0432019C70
:1052100043EA0603A4F10C040294009CCDE900B417
:1052200000F02BF9A2E7C10F80EAE0700844CA073A
:105230009623002100F0E7B896230022114600F0E3
:10524000E2B800F0004220F00040C10DC0F31600AB
:1052500040F400007F2901DA00207047962903DC22
:10526000C1F19601C84001E096398840002AF4D087
:105270004042704720F00040C10DC0F3160040F4DA
:1052800000007F2901DA00207047962903DCC1F174
:105290009601C840704796398840704700F0004238
:1052A00030F000400AD0C10D01F56071C0F3160066
:1052B00042EA0151C20840071143704700200146ED
:1052C000704701F0004330B421F0004150EA010280
:1052D00006D00A0DA2F56072C1F31301002A02DCA8
:1052E00030BC00207047440F44EAC104C100E018FC
:1052F00030BC00EBC25000F07DB80000002801DB9C
:10530000C0F10040002901DBC1F10041814270473A
:10531000002801DBC0F10040002901DBC1F10041A0
:105320008842704730B50B460146002020220124F8
:1053300009E021FA02F59D4205D303FA02F5491B63
:1053400004FA02F52844151EA2F10102F1DC30BD79
:105350002DE9F05F0546002092469B4688460646AA
:10536000814640241BE0284641464746224600F03D
:105370006FF953465A46C01A914110D31146184648
:10538000224600F016F82D1A67EB01084F46224618
:105390000120002100F00DF817EB00094E41201EFE
:1053A000A4F10104DFDC484631462A464346BDE805
:1053B000F09F202A04DB203A00FA02F10020704717
:1053C0009140C2F1200320FA03F319439040704743
:1053D000202A06DBCB17203A41FA02F043EAE073B9
:1053E00006E041FA02F3D040C2F1200291400843A6
:1053F000194670470029A8BF7047401C490008BFE4
:1054000020F00100704710B4B0FA80FC00FA0CF0F4
:1054100050EA010404BF10BC704749B1CCF120042C
:1054200021FA04F411FA0CF118BF012121430843B9
:10543000A3EB0C01CB1D0106000A002BBEBF002010
:1054400010BC704700EBC35010440029A4BF10BC2F
:105450007047401C490008BF20F0010010BC704795
:1054600010B5002B08DA401C41F1000192185B4195
:105470001A4301D120F0010010BD2DE9F04D9246F4
:105480009B4611B1B1FA81F202E0B0FA80F220320B
:105490009046FFF78EFF04460F4640EA0A0041EAB5
:1054A0000B0153465A46084303D120463946BDE80E
:1054B000F08D114653EA010015D0C8F14002504664
:1054C00000F0C6F805460E46504659464246FFF7DC
:1054D00070FF084301D0012000E00020054346EAA8
:1054E000E0762C4337430A984FEA4453A0EB080078
:1054F0004FEAD4240A304FF0000244EA47544FEAFE
:10550000D72502D500200146D1E7010510196941D0
:10551000DDE9084500196941BDE8F04DA0E72DE936
:10552000F04D81EA030404F0004B21F000451446DD
:105530004FF0000A23F0004150EA050220D054EA5F
:1055400001021DD0C5F30A570246C5F31303C1F388
:105550001300C1F30A5640F4801543F48013A7EBFF
:105560000608101BD64608F2FD3873EB050002D37F
:1055700008F1010801E092185B41B8F1000F03DA6D
:1055800000200146BDE8F08D00204FF48011064652
:1055900084460EE0171B73EB050705D3121B63EB64
:1055A000050306434CEA010C49084FEA3000921803
:1055B0005B4150EA0107EDD152EA030012D082EAC2
:1055C000040083EA0501084303D100224FF00043A1
:1055D00008E0101BAB4102D20122002302E06FF071
:1055E000010253101AEB06004CEB085110EB0A00B5
:1055F00041EB0B01BDE8F04DFFF732BF70B521F074
:10560000004303430CD0C1F30A550024D5EB040535
:1056100064EB0403D617AD1AB34102DB0020014648
:1056200070BD201841EB025170BD0000064C074DC3
:1056300006E0E06840F0010394E807009847103462
:10564000AC42F6D3FAF778FD1870000838700008FD
:10565000202A04DB203A21FA02F00021704721FAC7
:1056600002F3D040C2F1200291400843194670472E
:105670002DE9F04D00231A461B1A8A4103DB002056
:105680000146BDE8F08DC1F30A52C1F3130141F4A4
:1056900080154FF0000BD10702D100186D41521E4A
:1056A0000027044640F2FF11384601EB620A3E46ED
:1056B0008046024600204FF48011FFF7C9FFC2194F
:1056C0007141BB1846EB0100B4EB030C75EB000C09
:1056D00004D3E41A65EB000517460E46241908F1B9
:1056E00001006D4180463428E3DDF91946EB0600E0
:1056F000091BA84103D24FF0FF32134601E00022FC
:1057000013461BEB070046EB0A51BDE8F04DFFF7CF
:10571000A7BE00000FB4054B10B503A9044A0298B8
:1057200000F0A4F810BC5DF814FB0000B3180008EA
:10573000980000200FB4084B10B504A902AA0398E2
:1057400000F094F8044602A9002000F034FA204644
:1057500010BC5DF814FB0000B75B0008490050EA7C
:10576000C12018BF04204A0D18BF40F0010040F2CC
:10577000FF72B2EB515F08BF40F00200012808BF82
:10578000052070472DE9F0414F1E00EBC70104468C
:10579000D1E9000115461E4637F006020DD02A4613
:1057A0003346FFF7CEFC7F1E04EBC703D3E900238B
:1057B000FFF720FC37F00602F1D1022F25D0042F8D
:1057C00013D0062F18BFBDE8F0812A463346FFF7F5
:1057D000B8FCD4E90A23FFF70DFC2A463346FFF74D
:1057E000B0FCD4E90823FFF705FC2A463346FFF74F
:1057F000A8FCD4E90623FFF7FDFB2A463346FFF752
:10580000A0FCD4E90423FFF7F5FB2A463346FFF753
:1058100098FCD4E90223FFF7EDFB2A463346FFF755
:1058200090FCD4E90023BDE8F041FFF7E3BB0000A2
:10583000024A00201107FFF7E1BE000001FDFFFF53
:1058400002E008C8121F08C1002AFAD17047704749
:10585000002001E001C1121F002AFBD170470000A7
:1058600001490860704700009C0000202DE9FF4FAF
:105870008BB088460546002667E125287AD10024AA
:105880006D1CB649A146A24601222B78203B02FAA4
:1058900003F0084202D004436D1CF6E728782A285A
:1058A00010D06FF02F022878A0F13001092915D807
:1058B00009EB890102EB410144F0020400EB01090C
:1058C0006D1CF0E758F8049BB9F1000F03DA44F4BB
:1058D0000054C9F1000944F002046D1C28782E28F8
:1058E00017D115F8010F44F004042A280ED06FF0E8
:1058F0002F022878A0F1300109290AD80AEB8A0181
:1059000002EB410100EB010A6D1CF2E758F804AB11
:105910006D1C28786C280FD006DC4C2817D068281E
:105920000DD06A2814D104E0742810D07A280FD141
:105930000DE044F400140AE044F4801401E044F45F
:1059400040146978814202D16D1C04F580146D1CED
:105950002878692866D007DC002876D0632828D00C
:10596000642807D15EE005E06E2808D073282AD0AD
:1059700075287AD0DDE90D129047761CE4E0C4F377
:105980000250022809D003280DD0D8F800100428AE
:105990000DD00E6008F10408D6E0D8F80010F21718
:1059A000C1E90062F6E7D8F800100E80F2E70E7049
:1059B000F0E718F8041B8DF8001000208DF80100A6
:1059C000EB46012003E058F804BB4FF0FF306107BD
:1059D0004FF0000701D40AE07F1C57450DDA8742DB
:1059E000FADB1BF807100029F6D106E07F1C87427E
:1059F000FCDB1BF807100029F8D1DDE90D23A9EB2A
:105A000007008146214600F0BEF83044C61904E084
:105A1000DDE90D121BF8010B90477F1EF8D22146DD
:105A200048468CE058F8040BC4F302514FF00A0BBF
:105A3000032900D100B2042900D140B2002806DABF
:105A4000C0F100004FF02D0104E082E00DE02105DF
:105A500004D52B218DF82410012103E0E10710D09B
:105A60002021F7E708AF089114E058F8040BC4F3BD
:105A700002514FF00A0B032900D180B2042900D152
:105A8000C0B20021EEE75946FFF74CFC01F13001AE
:105A900007F8011D0028F6D1ADEB070000F1200B3F
:105AA000600702D524F4803401E04FF0010ADA45A2
:105AB00002DDAAEB0B0000E00020824600EB0B01A8
:105AC00008980144A9EB01000A90E00306D4DDE93F
:105AD0000D2321460A9800F056F80644002008E0FD
